{
  "_format": "hh-sol-artifact-1",
  "contractName": "Dog",
  "sourceName": "contracts/Dog.sol",
  "abi": [
    {
      "inputs": [
        {
          "internalType": "string",
          "name": "_name",
          "type": "string"
        },
        {
          "internalType": "string",
          "name": "_symbol",
          "type": "string"
        }
      ],
      "stateMutability": "nonpayable",
      "type": "constructor"
    },
    {
      "anonymous": false,
      "inputs": [
        {
          "indexed": true,
          "internalType": "address",
          "name": "owner",
          "type": "address"
        },
        {
          "indexed": true,
          "internalType": "address",
          "name": "approved",
          "type": "address"
        },
        {
          "indexed": true,
          "internalType": "uint256",
          "name": "tokenId",
          "type": "uint256"
        }
      ],
      "name": "Approval",
      "type": "event"
    },
    {
      "anonymous": false,
      "inputs": [
        {
          "indexed": true,
          "internalType": "address",
          "name": "owner",
          "type": "address"
        },
        {
          "indexed": true,
          "internalType": "address",
          "name": "operator",
          "type": "address"
        },
        {
          "indexed": false,
          "internalType": "bool",
          "name": "approved",
          "type": "bool"
        }
      ],
      "name": "ApprovalForAll",
      "type": "event"
    },
    {
      "anonymous": false,
      "inputs": [
        {
          "indexed": true,
          "internalType": "address",
          "name": "from",
          "type": "address"
        },
        {
          "indexed": true,
          "internalType": "address",
          "name": "to",
          "type": "address"
        },
        {
          "indexed": true,
          "internalType": "uint256",
          "name": "tokenId",
          "type": "uint256"
        }
      ],
      "name": "Transfer",
      "type": "event"
    },
    {
      "inputs": [
        {
          "internalType": "address",
          "name": "to",
          "type": "address"
        },
        {
          "internalType": "uint256",
          "name": "tokenId",
          "type": "uint256"
        }
      ],
      "name": "approve",
      "outputs": [],
      "stateMutability": "nonpayable",
      "type": "function"
    },
    {
      "inputs": [
        {
          "internalType": "address",
          "name": "owner",
          "type": "address"
        }
      ],
      "name": "balanceOf",
      "outputs": [
        {
          "internalType": "uint256",
          "name": "",
          "type": "uint256"
        }
      ],
      "stateMutability": "view",
      "type": "function"
    },
    {
      "inputs": [
        {
          "internalType": "uint256",
          "name": "",
          "type": "uint256"
        }
      ],
      "name": "dogs",
      "outputs": [
        {
          "internalType": "uint256",
          "name": "id",
          "type": "uint256"
        },
        {
          "internalType": "string",
          "name": "uuid",
          "type": "string"
        },
        {
          "internalType": "string",
          "name": "name",
          "type": "string"
        },
        {
          "internalType": "string",
          "name": "breed",
          "type": "string"
        },
        {
          "internalType": "string",
          "name": "color",
          "type": "string"
        },
        {
          "internalType": "uint8",
          "name": "availableForAdpt",
          "type": "uint8"
        }
      ],
      "stateMutability": "view",
      "type": "function"
    },
    {
      "inputs": [
        {
          "internalType": "string",
          "name": "_uuid",
          "type": "string"
        }
      ],
      "name": "findDog",
      "outputs": [
        {
          "components": [
            {
              "internalType": "uint256",
              "name": "id",
              "type": "uint256"
            },
            {
              "internalType": "string",
              "name": "uuid",
              "type": "string"
            },
            {
              "internalType": "string",
              "name": "name",
              "type": "string"
            },
            {
              "internalType": "string",
              "name": "breed",
              "type": "string"
            },
            {
              "internalType": "string",
              "name": "color",
              "type": "string"
            },
            {
              "internalType": "uint8",
              "name": "availableForAdpt",
              "type": "uint8"
            }
          ],
          "internalType": "struct Dog.DogInfo",
          "name": "",
          "type": "tuple"
        }
      ],
      "stateMutability": "view",
      "type": "function"
    },
    {
      "inputs": [
        {
          "internalType": "uint256",
          "name": "tokenId",
          "type": "uint256"
        }
      ],
      "name": "getApproved",
      "outputs": [
        {
          "internalType": "address",
          "name": "",
          "type": "address"
        }
      ],
      "stateMutability": "view",
      "type": "function"
    },
    {
      "inputs": [
        {
          "internalType": "address",
          "name": "owner",
          "type": "address"
        },
        {
          "internalType": "address",
          "name": "operator",
          "type": "address"
        }
      ],
      "name": "isApprovedForAll",
      "outputs": [
        {
          "internalType": "bool",
          "name": "",
          "type": "bool"
        }
      ],
      "stateMutability": "view",
      "type": "function"
    },
    {
      "inputs": [],
      "name": "name",
      "outputs": [
        {
          "internalType": "string",
          "name": "",
          "type": "string"
        }
      ],
      "stateMutability": "view",
      "type": "function"
    },
    {
      "inputs": [],
      "name": "owner",
      "outputs": [
        {
          "internalType": "address",
          "name": "",
          "type": "address"
        }
      ],
      "stateMutability": "view",
      "type": "function"
    },
    {
      "inputs": [
        {
          "internalType": "uint256",
          "name": "tokenId",
          "type": "uint256"
        }
      ],
      "name": "ownerOf",
      "outputs": [
        {
          "internalType": "address",
          "name": "",
          "type": "address"
        }
      ],
      "stateMutability": "view",
      "type": "function"
    },
    {
      "inputs": [
        {
          "internalType": "string",
          "name": "_uuid",
          "type": "string"
        },
        {
          "internalType": "string",
          "name": "_name",
          "type": "string"
        },
        {
          "internalType": "string",
          "name": "_breed",
          "type": "string"
        },
        {
          "internalType": "string",
          "name": "_color",
          "type": "string"
        }
      ],
      "name": "registerDog",
      "outputs": [],
      "stateMutability": "nonpayable",
      "type": "function"
    },
    {
      "inputs": [
        {
          "internalType": "address",
          "name": "from",
          "type": "address"
        },
        {
          "internalType": "address",
          "name": "to",
          "type": "address"
        },
        {
          "internalType": "uint256",
          "name": "tokenId",
          "type": "uint256"
        }
      ],
      "name": "safeTransferFrom",
      "outputs": [],
      "stateMutability": "nonpayable",
      "type": "function"
    },
    {
      "inputs": [
        {
          "internalType": "address",
          "name": "from",
          "type": "address"
        },
        {
          "internalType": "address",
          "name": "to",
          "type": "address"
        },
        {
          "internalType": "uint256",
          "name": "tokenId",
          "type": "uint256"
        },
        {
          "internalType": "bytes",
          "name": "_data",
          "type": "bytes"
        }
      ],
      "name": "safeTransferFrom",
      "outputs": [],
      "stateMutability": "nonpayable",
      "type": "function"
    },
    {
      "inputs": [
        {
          "internalType": "address",
          "name": "operator",
          "type": "address"
        },
        {
          "internalType": "bool",
          "name": "approved",
          "type": "bool"
        }
      ],
      "name": "setApprovalForAll",
      "outputs": [],
      "stateMutability": "nonpayable",
      "type": "function"
    },
    {
      "inputs": [
        {
          "internalType": "bytes4",
          "name": "interfaceId",
          "type": "bytes4"
        }
      ],
      "name": "supportsInterface",
      "outputs": [
        {
          "internalType": "bool",
          "name": "",
          "type": "bool"
        }
      ],
      "stateMutability": "view",
      "type": "function"
    },
    {
      "inputs": [],
      "name": "symbol",
      "outputs": [
        {
          "internalType": "string",
          "name": "",
          "type": "string"
        }
      ],
      "stateMutability": "view",
      "type": "function"
    },
    {
      "inputs": [
        {
          "internalType": "uint256",
          "name": "tokenId",
          "type": "uint256"
        }
      ],
      "name": "tokenURI",
      "outputs": [
        {
          "internalType": "string",
          "name": "",
          "type": "string"
        }
      ],
      "stateMutability": "view",
      "type": "function"
    },
    {
      "inputs": [],
      "name": "totalSupply",
      "outputs": [
        {
          "internalType": "uint256",
          "name": "",
          "type": "uint256"
        }
      ],
      "stateMutability": "view",
      "type": "function"
    },
    {
      "inputs": [
        {
          "internalType": "address",
          "name": "from",
          "type": "address"
        },
        {
          "internalType": "address",
          "name": "to",
          "type": "address"
        },
        {
          "internalType": "uint256",
          "name": "tokenId",
          "type": "uint256"
        }
      ],
      "name": "transferFrom",
      "outputs": [],
      "stateMutability": "nonpayable",
      "type": "function"
    }
  ],
  "bytecode": "0x60806040523480156200001157600080fd5b50604051620039bf380380620039bf8339818101604052810190620000379190620001d8565b8181816000908051906020019062000051929190620000b6565b5080600190805190602001906200006a929190620000b6565b50505033600660006101000a81548173ffffffffffffffffffffffffffffffffffffffff021916908373ffffffffffffffffffffffffffffffffffffffff1602179055505050620003bb565b828054620000c490620002e0565b90600052602060002090601f016020900481019282620000e8576000855562000134565b82601f106200010357805160ff191683800117855562000134565b8280016001018555821562000134579182015b828111156200013357825182559160200191906001019062000116565b5b50905062000143919062000147565b5090565b5b808211156200016257600081600090555060010162000148565b5090565b60006200017d620001778462000274565b6200024b565b9050828152602081018484840111156200019657600080fd5b620001a3848285620002aa565b509392505050565b600082601f830112620001bd57600080fd5b8151620001cf84826020860162000166565b91505092915050565b60008060408385031215620001ec57600080fd5b600083015167ffffffffffffffff8111156200020757600080fd5b6200021585828601620001ab565b925050602083015167ffffffffffffffff8111156200023357600080fd5b6200024185828601620001ab565b9150509250929050565b6000620002576200026a565b905062000265828262000316565b919050565b6000604051905090565b600067ffffffffffffffff8211156200029257620002916200037b565b5b6200029d82620003aa565b9050602081019050919050565b60005b83811015620002ca578082015181840152602081019050620002ad565b83811115620002da576000848401525b50505050565b60006002820490506001821680620002f957607f821691505b6020821081141562000310576200030f6200034c565b5b50919050565b6200032182620003aa565b810181811067ffffffffffffffff821117156200034357620003426200037b565b5b80604052505050565b7f4e487b7100000000000000000000000000000000000000000000000000000000600052602260045260246000fd5b7f4e487b7100000000000000000000000000000000000000000000000000000000600052604160045260246000fd5b6000601f19601f8301169050919050565b6135f480620003cb6000396000f3fe608060405234801561001057600080fd5b50600436106101165760003560e01c80636352211e116100a257806395d89b411161007157806395d89b411461030a578063a22cb46514610328578063b88d4fde14610344578063c87b56dd14610360578063e985e9c51461039057610116565b80636352211e1461025c57806370a082311461028c578063749e7ff4146102bc5780638da5cb5b146102ec57610116565b8063095ea7b3116100e9578063095ea7b3146101b557806318160ddd146101d157806323b872dd146101ef578063382723561461020b57806342842e0e1461024057610116565b806301ffc9a71461011b57806306fdde031461014b578063081812fc146101695780630863e0b914610199575b600080fd5b6101356004803603810190610130919061234c565b6103c0565b60405161014291906129f0565b60405180910390f35b6101536104a2565b6040516101609190612a0b565b60405180910390f35b610183600480360381019061017e91906124a2565b610534565b6040516101909190612989565b60405180910390f35b6101b360048036038101906101ae91906123df565b6105b9565b005b6101cf60048036038101906101ca9190612310565b61076b565b005b6101d9610883565b6040516101e69190612c4f565b60405180910390f35b6102096004803603810190610204919061220a565b610890565b005b610225600480360381019061022091906124a2565b6108f0565b60405161023796959493929190612c6a565b60405180910390f35b61025a6004803603810190610255919061220a565b610b69565b005b610276600480360381019061027191906124a2565b610b89565b6040516102839190612989565b60405180910390f35b6102a660048036038101906102a191906121a5565b610c3b565b6040516102b39190612c4f565b60405180910390f35b6102d660048036038101906102d1919061239e565b610cf3565b6040516102e39190612c2d565b60405180910390f35b6102f4611097565b6040516103019190612989565b60405180910390f35b6103126110bd565b60405161031f9190612a0b565b60405180910390f35b610342600480360381019061033d91906122d4565b61114f565b005b61035e60048036038101906103599190612259565b611165565b005b61037a600480360381019061037591906124a2565b6111c7565b6040516103879190612a0b565b60405180910390f35b6103aa60048036038101906103a591906121ce565b61126e565b6040516103b791906129f0565b60405180910390f35b60007f80ac58cd000000000000000000000000000000000000000000000000000000007bffffffffffffffffffffffffffffffffffffffffffffffffffffffff1916827bffffffffffffffffffffffffffffffffffffffffffffffffffffffff1916148061048b57507f5b5e139f000000000000000000000000000000000000000000000000000000007bffffffffffffffffffffffffffffffffffffffffffffffffffffffff1916827bffffffffffffffffffffffffffffffffffffffffffffffffffffffff1916145b8061049b575061049a82611302565b5b9050919050565b6060600080546104b190612f60565b80601f01602080910402602001604051908101604052809291908181526020018280546104dd90612f60565b801561052a5780601f106104ff5761010080835404028352916020019161052a565b820191906000526020600020905b81548152906001019060200180831161050d57829003601f168201915b5050505050905090565b600061053f8261136c565b61057e576040517f08c379a000000000000000000000000000000000000000000000000000000000815260040161057590612bad565b60405180910390fd5b6004600083815260200190815260200160002060009054906101000a900473ffffffffffffffffffffffffffffffffffffffff169050919050565b600660009054906101000a900473ffffffffffffffffffffffffffffffffffffffff1673ffffffffffffffffffffffffffffffffffffffff163373ffffffffffffffffffffffffffffffffffffffff1614610649576040517f08c379a000000000000000000000000000000000000000000000000000000000815260040161064090612a2d565b60405180910390fd5b600061065560076113d8565b905060006040518060c00160405280838152602001878152602001868152602001858152602001848152602001600160ff16815250905060088190806001815401808255809150506001900390600052602060002090600602016000909190919091506000820151816000015560208201518160010190805190602001906106de929190611f90565b5060408201518160020190805190602001906106fb929190611f90565b506060820151816003019080519060200190610718929190611f90565b506080820151816004019080519060200190610735929190611f90565b5060a08201518160050160006101000a81548160ff021916908360ff160217905550505061076333836113e6565b505050505050565b600061077682610b89565b90508073ffffffffffffffffffffffffffffffffffffffff168373ffffffffffffffffffffffffffffffffffffffff1614156107e7576040517f08c379a00000000000000000000000000000000000000000000000000000000081526004016107de90612bed565b60405180910390fd5b8073ffffffffffffffffffffffffffffffffffffffff16610806611404565b73ffffffffffffffffffffffffffffffffffffffff16148061083557506108348161082f611404565b61126e565b5b610874576040517f08c379a000000000000000000000000000000000000000000000000000000000815260040161086b90612b2d565b60405180910390fd5b61087e838361140c565b505050565b6000600880549050905090565b6108a161089b611404565b826114c5565b6108e0576040517f08c379a00000000000000000000000000000000000000000000000000000000081526004016108d790612c0d565b60405180910390fd5b6108eb8383836115a3565b505050565b6008818154811061090057600080fd5b906000526020600020906006020160009150905080600001549080600101805461092990612f60565b80601f016020809104026020016040519081016040528092919081815260200182805461095590612f60565b80156109a25780601f10610977576101008083540402835291602001916109a2565b820191906000526020600020905b81548152906001019060200180831161098557829003601f168201915b5050505050908060020180546109b790612f60565b80601f01602080910402602001604051908101604052809291908181526020018280546109e390612f60565b8015610a305780601f10610a0557610100808354040283529160200191610a30565b820191906000526020600020905b815481529060010190602001808311610a1357829003601f168201915b505050505090806003018054610a4590612f60565b80601f0160208091040260200160405190810160405280929190818152602001828054610a7190612f60565b8015610abe5780601f10610a9357610100808354040283529160200191610abe565b820191906000526020600020905b815481529060010190602001808311610aa157829003601f168201915b505050505090806004018054610ad390612f60565b80601f0160208091040260200160405190810160405280929190818152602001828054610aff90612f60565b8015610b4c5780601f10610b2157610100808354040283529160200191610b4c565b820191906000526020600020905b815481529060010190602001808311610b2f57829003601f168201915b5050505050908060050160009054906101000a900460ff16905086565b610b8483838360405180602001604052806000815250611165565b505050565b6000806002600084815260200190815260200160002060009054906101000a900473ffffffffffffffffffffffffffffffffffffffff169050600073ffffffffffffffffffffffffffffffffffffffff168173ffffffffffffffffffffffffffffffffffffffff161415610c32576040517f08c379a0000000000000000000000000000000000000000000000000000000008152600401610c2990612b6d565b60405180910390fd5b80915050919050565b60008073ffffffffffffffffffffffffffffffffffffffff168273ffffffffffffffffffffffffffffffffffffffff161415610cac576040517f08c379a0000000000000000000000000000000000000000000000000000000008152600401610ca390612b4d565b60405180910390fd5b600360008373ffffffffffffffffffffffffffffffffffffffff1673ffffffffffffffffffffffffffffffffffffffff168152602001908152602001600020549050919050565b610cfb612016565b60005b60088054905081101561105657828051906020012060088281548110610d4d577f4e487b7100000000000000000000000000000000000000000000000000000000600052603260045260246000fd5b9060005260206000209060060201600101604051610d6b919061294e565b604051809103902014156110435760088181548110610db3577f4e487b7100000000000000000000000000000000000000000000000000000000600052603260045260246000fd5b90600052602060002090600602016040518060c001604052908160008201548152602001600182018054610de690612f60565b80601f0160208091040260200160405190810160405280929190818152602001828054610e1290612f60565b8015610e5f5780601f10610e3457610100808354040283529160200191610e5f565b820191906000526020600020905b815481529060010190602001808311610e4257829003601f168201915b50505050508152602001600282018054610e7890612f60565b80601f0160208091040260200160405190810160405280929190818152602001828054610ea490612f60565b8015610ef15780601f10610ec657610100808354040283529160200191610ef1565b820191906000526020600020905b815481529060010190602001808311610ed457829003601f168201915b50505050508152602001600382018054610f0a90612f60565b80601f0160208091040260200160405190810160405280929190818152602001828054610f3690612f60565b8015610f835780601f10610f5857610100808354040283529160200191610f83565b820191906000526020600020905b815481529060010190602001808311610f6657829003601f168201915b50505050508152602001600482018054610f9c90612f60565b80601f0160208091040260200160405190810160405280929190818152602001828054610fc890612f60565b80156110155780601f10610fea57610100808354040283529160200191611015565b820191906000526020600020905b815481529060010190602001808311610ff857829003601f168201915b505050505081526020016005820160009054906101000a900460ff1660ff1660ff1681525050915050611092565b808061104e90612fc3565b915050610cfe565b506040517f08c379a000000000000000000000000000000000000000000000000000000000815260040161108990612b0d565b60405180910390fd5b919050565b600660009054906101000a900473ffffffffffffffffffffffffffffffffffffffff1681565b6060600180546110cc90612f60565b80601f01602080910402602001604051908101604052809291908181526020018280546110f890612f60565b80156111455780601f1061111a57610100808354040283529160200191611145565b820191906000526020600020905b81548152906001019060200180831161112857829003601f168201915b5050505050905090565b61116161115a611404565b838361180a565b5050565b611176611170611404565b836114c5565b6111b5576040517f08c379a00000000000000000000000000000000000000000000000000000000081526004016111ac90612c0d565b60405180910390fd5b6111c184848484611977565b50505050565b60606111d28261136c565b611211576040517f08c379a000000000000000000000000000000000000000000000000000000000815260040161120890612bcd565b60405180910390fd5b600061121b6119d3565b9050600081511161123b5760405180602001604052806000815250611266565b80611245846119ea565b604051602001611256929190612965565b6040516020818303038152906040525b915050919050565b6000600560008473ffffffffffffffffffffffffffffffffffffffff1673ffffffffffffffffffffffffffffffffffffffff16815260200190815260200160002060008373ffffffffffffffffffffffffffffffffffffffff1673ffffffffffffffffffffffffffffffffffffffff16815260200190815260200160002060009054906101000a900460ff16905092915050565b60007f01ffc9a7000000000000000000000000000000000000000000000000000000007bffffffffffffffffffffffffffffffffffffffffffffffffffffffff1916827bffffffffffffffffffffffffffffffffffffffffffffffffffffffff1916149050919050565b60008073ffffffffffffffffffffffffffffffffffffffff166002600084815260200190815260200160002060009054906101000a900473ffffffffffffffffffffffffffffffffffffffff1673ffffffffffffffffffffffffffffffffffffffff1614159050919050565b600081600001549050919050565b611400828260405180602001604052806000815250611b97565b5050565b600033905090565b816004600083815260200190815260200160002060006101000a81548173ffffffffffffffffffffffffffffffffffffffff021916908373ffffffffffffffffffffffffffffffffffffffff160217905550808273ffffffffffffffffffffffffffffffffffffffff1661147f83610b89565b73ffffffffffffffffffffffffffffffffffffffff167f8c5be1e5ebec7d5bd14f71427d1e84f3dd0314c0f7b2291e5b200ac8c7c3b92560405160405180910390a45050565b60006114d08261136c565b61150f576040517f08c379a000000000000000000000000000000000000000000000000000000000815260040161150690612aed565b60405180910390fd5b600061151a83610b89565b90508073ffffffffffffffffffffffffffffffffffffffff168473ffffffffffffffffffffffffffffffffffffffff16148061158957508373ffffffffffffffffffffffffffffffffffffffff1661157184610534565b73ffffffffffffffffffffffffffffffffffffffff16145b8061159a5750611599818561126e565b5b91505092915050565b8273ffffffffffffffffffffffffffffffffffffffff166115c382610b89565b73ffffffffffffffffffffffffffffffffffffffff1614611619576040517f08c379a000000000000000000000000000000000000000000000000000000000815260040161161090612a6d565b60405180910390fd5b600073ffffffffffffffffffffffffffffffffffffffff168273ffffffffffffffffffffffffffffffffffffffff161415611689576040517f08c379a000000000000000000000000000000000000000000000000000000000815260040161168090612aad565b60405180910390fd5b611694838383611bf2565b61169f60008261140c565b6001600360008573ffffffffffffffffffffffffffffffffffffffff1673ffffffffffffffffffffffffffffffffffffffff16815260200190815260200160002060008282546116ef9190612e69565b925050819055506001600360008473ffffffffffffffffffffffffffffffffffffffff1673ffffffffffffffffffffffffffffffffffffffff16815260200190815260200160002060008282546117469190612de2565b92505081905550816002600083815260200190815260200160002060006101000a81548173ffffffffffffffffffffffffffffffffffffffff021916908373ffffffffffffffffffffffffffffffffffffffff160217905550808273ffffffffffffffffffffffffffffffffffffffff168473ffffffffffffffffffffffffffffffffffffffff167fddf252ad1be2c89b69c2b068fc378daa952ba7f163c4a11628f55a4df523b3ef60405160405180910390a4611805838383611bf7565b505050565b8173ffffffffffffffffffffffffffffffffffffffff168373ffffffffffffffffffffffffffffffffffffffff161415611879576040517f08c379a000000000000000000000000000000000000000000000000000000000815260040161187090612acd565b60405180910390fd5b80600560008573ffffffffffffffffffffffffffffffffffffffff1673ffffffffffffffffffffffffffffffffffffffff16815260200190815260200160002060008473ffffffffffffffffffffffffffffffffffffffff1673ffffffffffffffffffffffffffffffffffffffff16815260200190815260200160002060006101000a81548160ff0219169083151502179055508173ffffffffffffffffffffffffffffffffffffffff168373ffffffffffffffffffffffffffffffffffffffff167f17307eab39ab6107e8899845ad3d59bd9653f200f220920489ca2b5937696c318360405161196a91906129f0565b60405180910390a3505050565b6119828484846115a3565b61198e84848484611bfc565b6119cd576040517f08c379a00000000000000000000000000000000000000000000000000000000081526004016119c490612a4d565b60405180910390fd5b50505050565b606060405180602001604052806000815250905090565b60606000821415611a32576040518060400160405280600181526020017f30000000000000000000000000000000000000000000000000000000000000008152509050611b92565b600082905060005b60008214611a64578080611a4d90612fc3565b915050600a82611a5d9190612e38565b9150611a3a565b60008167ffffffffffffffff811115611aa6577f4e487b7100000000000000000000000000000000000000000000000000000000600052604160045260246000fd5b6040519080825280601f01601f191660200182016040528015611ad85781602001600182028036833780820191505090505b5090505b60008514611b8b57600182611af19190612e69565b9150600a85611b00919061300c565b6030611b0c9190612de2565b60f81b818381518110611b48577f4e487b7100000000000000000000000000000000000000000000000000000000600052603260045260246000fd5b60200101907effffffffffffffffffffffffffffffffffffffffffffffffffffffffffffff1916908160001a905350600a85611b849190612e38565b9450611adc565b8093505050505b919050565b611ba18383611d93565b611bae6000848484611bfc565b611bed576040517f08c379a0000000000000000000000000000000000000000000000000000000008152600401611be490612a4d565b60405180910390fd5b505050565b505050565b505050565b6000611c1d8473ffffffffffffffffffffffffffffffffffffffff16611f6d565b15611d86578373ffffffffffffffffffffffffffffffffffffffff1663150b7a02611c46611404565b8786866040518563ffffffff1660e01b8152600401611c6894939291906129a4565b602060405180830381600087803b158015611c8257600080fd5b505af1925050508015611cb357506040513d601f19601f82011682018060405250810190611cb09190612375565b60015b611d36573d8060008114611ce3576040519150601f19603f3d011682016040523d82523d6000602084013e611ce8565b606091505b50600081511415611d2e576040517f08c379a0000000000000000000000000000000000000000000000000000000008152600401611d2590612a4d565b60405180910390fd5b805181602001fd5b63150b7a0260e01b7bffffffffffffffffffffffffffffffffffffffffffffffffffffffff1916817bffffffffffffffffffffffffffffffffffffffffffffffffffffffff191614915050611d8b565b600190505b949350505050565b600073ffffffffffffffffffffffffffffffffffffffff168273ffffffffffffffffffffffffffffffffffffffff161415611e03576040517f08c379a0000000000000000000000000000000000000000000000000000000008152600401611dfa90612b8d565b60405180910390fd5b611e0c8161136c565b15611e4c576040517f08c379a0000000000000000000000000000000000000000000000000000000008152600401611e4390612a8d565b60405180910390fd5b611e5860008383611bf2565b6001600360008473ffffffffffffffffffffffffffffffffffffffff1673ffffffffffffffffffffffffffffffffffffffff1681526020019081526020016000206000828254611ea89190612de2565b92505081905550816002600083815260200190815260200160002060006101000a81548173ffffffffffffffffffffffffffffffffffffffff021916908373ffffffffffffffffffffffffffffffffffffffff160217905550808273ffffffffffffffffffffffffffffffffffffffff16600073ffffffffffffffffffffffffffffffffffffffff167fddf252ad1be2c89b69c2b068fc378daa952ba7f163c4a11628f55a4df523b3ef60405160405180910390a4611f6960008383611bf7565b5050565b6000808273ffffffffffffffffffffffffffffffffffffffff163b119050919050565b828054611f9c90612f60565b90600052602060002090601f016020900481019282611fbe5760008555612005565b82601f10611fd757805160ff1916838001178555612005565b82800160010185558215612005579182015b82811115612004578251825591602001919060010190611fe9565b5b509050612012919061204f565b5090565b6040518060c001604052806000815260200160608152602001606081526020016060815260200160608152602001600060ff1681525090565b5b80821115612068576000816000905550600101612050565b5090565b600061207f61207a84612d0c565b612ce7565b90508281526020810184848401111561209757600080fd5b6120a2848285612f1e565b509392505050565b60006120bd6120b884612d3d565b612ce7565b9050828152602081018484840111156120d557600080fd5b6120e0848285612f1e565b509392505050565b6000813590506120f781613562565b92915050565b60008135905061210c81613579565b92915050565b60008135905061212181613590565b92915050565b60008151905061213681613590565b92915050565b600082601f83011261214d57600080fd5b813561215d84826020860161206c565b91505092915050565b600082601f83011261217757600080fd5b81356121878482602086016120aa565b91505092915050565b60008135905061219f816135a7565b92915050565b6000602082840312156121b757600080fd5b60006121c5848285016120e8565b91505092915050565b600080604083850312156121e157600080fd5b60006121ef858286016120e8565b9250506020612200858286016120e8565b9150509250929050565b60008060006060848603121561221f57600080fd5b600061222d868287016120e8565b935050602061223e868287016120e8565b925050604061224f86828701612190565b9150509250925092565b6000806000806080858703121561226f57600080fd5b600061227d878288016120e8565b945050602061228e878288016120e8565b935050604061229f87828801612190565b925050606085013567ffffffffffffffff8111156122bc57600080fd5b6122c88782880161213c565b91505092959194509250565b600080604083850312156122e757600080fd5b60006122f5858286016120e8565b9250506020612306858286016120fd565b9150509250929050565b6000806040838503121561232357600080fd5b6000612331858286016120e8565b925050602061234285828601612190565b9150509250929050565b60006020828403121561235e57600080fd5b600061236c84828501612112565b91505092915050565b60006020828403121561238757600080fd5b600061239584828501612127565b91505092915050565b6000602082840312156123b057600080fd5b600082013567ffffffffffffffff8111156123ca57600080fd5b6123d684828501612166565b91505092915050565b600080600080608085870312156123f557600080fd5b600085013567ffffffffffffffff81111561240f57600080fd5b61241b87828801612166565b945050602085013567ffffffffffffffff81111561243857600080fd5b61244487828801612166565b935050604085013567ffffffffffffffff81111561246157600080fd5b61246d87828801612166565b925050606085013567ffffffffffffffff81111561248a57600080fd5b61249687828801612166565b91505092959194509250565b6000602082840312156124b457600080fd5b60006124c284828501612190565b91505092915050565b6124d481612e9d565b82525050565b6124e381612eaf565b82525050565b60006124f482612d83565b6124fe8185612d99565b935061250e818560208601612f2d565b612517816130f9565b840191505092915050565b6000815461252f81612f60565b6125398186612daa565b94506001821660008114612554576001811461256557612598565b60ff19831686528186019350612598565b61256e85612d6e565b60005b8381101561259057815481890152600182019150602081019050612571565b838801955050505b50505092915050565b60006125ac82612d8e565b6125b68185612db5565b93506125c6818560208601612f2d565b6125cf816130f9565b840191505092915050565b60006125e582612d8e565b6125ef8185612dc6565b93506125ff818560208601612f2d565b612608816130f9565b840191505092915050565b600061261e82612d8e565b6126288185612dd7565b9350612638818560208601612f2d565b80840191505092915050565b6000612651602583612dc6565b915061265c8261310a565b604082019050919050565b6000612674603283612dc6565b915061267f82613159565b604082019050919050565b6000612697602583612dc6565b91506126a2826131a8565b604082019050919050565b60006126ba601c83612dc6565b91506126c5826131f7565b602082019050919050565b60006126dd602483612dc6565b91506126e882613220565b604082019050919050565b6000612700601983612dc6565b915061270b8261326f565b602082019050919050565b6000612723602c83612dc6565b915061272e82613298565b604082019050919050565b6000612746600d83612dc6565b9150612751826132e7565b602082019050919050565b6000612769603883612dc6565b915061277482613310565b604082019050919050565b600061278c602a83612dc6565b91506127978261335f565b604082019050919050565b60006127af602983612dc6565b91506127ba826133ae565b604082019050919050565b60006127d2602083612dc6565b91506127dd826133fd565b602082019050919050565b60006127f5602c83612dc6565b915061280082613426565b604082019050919050565b6000612818602f83612dc6565b915061282382613475565b604082019050919050565b600061283b602183612dc6565b9150612846826134c4565b604082019050919050565b600061285e603183612dc6565b915061286982613513565b604082019050919050565b600060c08301600083015161288c6000860182612912565b50602083015184820360208601526128a482826125a1565b915050604083015184820360408601526128be82826125a1565b915050606083015184820360608601526128d882826125a1565b915050608083015184820360808601526128f282826125a1565b91505060a083015161290760a0860182612930565b508091505092915050565b61291b81612f07565b82525050565b61292a81612f07565b82525050565b61293981612f11565b82525050565b61294881612f11565b82525050565b600061295a8284612522565b915081905092915050565b60006129718285612613565b915061297d8284612613565b91508190509392505050565b600060208201905061299e60008301846124cb565b92915050565b60006080820190506129b960008301876124cb565b6129c660208301866124cb565b6129d36040830185612921565b81810360608301526129e581846124e9565b905095945050505050565b6000602082019050612a0560008301846124da565b92915050565b60006020820190508181036000830152612a2581846125da565b905092915050565b60006020820190508181036000830152612a4681612644565b9050919050565b60006020820190508181036000830152612a6681612667565b9050919050565b60006020820190508181036000830152612a868161268a565b9050919050565b60006020820190508181036000830152612aa6816126ad565b9050919050565b60006020820190508181036000830152612ac6816126d0565b9050919050565b60006020820190508181036000830152612ae6816126f3565b9050919050565b60006020820190508181036000830152612b0681612716565b9050919050565b60006020820190508181036000830152612b2681612739565b9050919050565b60006020820190508181036000830152612b468161275c565b9050919050565b60006020820190508181036000830152612b668161277f565b9050919050565b60006020820190508181036000830152612b86816127a2565b9050919050565b60006020820190508181036000830152612ba6816127c5565b9050919050565b60006020820190508181036000830152612bc6816127e8565b9050919050565b60006020820190508181036000830152612be68161280b565b9050919050565b60006020820190508181036000830152612c068161282e565b9050919050565b60006020820190508181036000830152612c2681612851565b9050919050565b60006020820190508181036000830152612c478184612874565b905092915050565b6000602082019050612c646000830184612921565b92915050565b600060c082019050612c7f6000830189612921565b8181036020830152612c9181886125da565b90508181036040830152612ca581876125da565b90508181036060830152612cb981866125da565b90508181036080830152612ccd81856125da565b9050612cdc60a083018461293f565b979650505050505050565b6000612cf1612d02565b9050612cfd8282612f92565b919050565b6000604051905090565b600067ffffffffffffffff821115612d2757612d266130ca565b5b612d30826130f9565b9050602081019050919050565b600067ffffffffffffffff821115612d5857612d576130ca565b5b612d61826130f9565b9050602081019050919050565b60008190508160005260206000209050919050565b600081519050919050565b600081519050919050565b600082825260208201905092915050565b600081905092915050565b600082825260208201905092915050565b600082825260208201905092915050565b600081905092915050565b6000612ded82612f07565b9150612df883612f07565b9250827fffffffffffffffffffffffffffffffffffffffffffffffffffffffffffffffff03821115612e2d57612e2c61303d565b5b828201905092915050565b6000612e4382612f07565b9150612e4e83612f07565b925082612e5e57612e5d61306c565b5b828204905092915050565b6000612e7482612f07565b9150612e7f83612f07565b925082821015612e9257612e9161303d565b5b828203905092915050565b6000612ea882612ee7565b9050919050565b60008115159050919050565b60007fffffffff0000000000000000000000000000000000000000000000000000000082169050919050565b600073ffffffffffffffffffffffffffffffffffffffff82169050919050565b6000819050919050565b600060ff82169050919050565b82818337600083830152505050565b60005b83811015612f4b578082015181840152602081019050612f30565b83811115612f5a576000848401525b50505050565b60006002820490506001821680612f7857607f821691505b60208210811415612f8c57612f8b61309b565b5b50919050565b612f9b826130f9565b810181811067ffffffffffffffff82111715612fba57612fb96130ca565b5b80604052505050565b6000612fce82612f07565b91507fffffffffffffffffffffffffffffffffffffffffffffffffffffffffffffffff8214156130015761300061303d565b5b600182019050919050565b600061301782612f07565b915061302283612f07565b9250826130325761303161306c565b5b828206905092915050565b7f4e487b7100000000000000000000000000000000000000000000000000000000600052601160045260246000fd5b7f4e487b7100000000000000000000000000000000000000000000000000000000600052601260045260246000fd5b7f4e487b7100000000000000000000000000000000000000000000000000000000600052602260045260246000fd5b7f4e487b7100000000000000000000000000000000000000000000000000000000600052604160045260246000fd5b6000601f19601f8301169050919050565b7f4f6e6c7920746865206f776e65722063616e2063616c6c20746869732066756e60008201527f6374696f6e000000000000000000000000000000000000000000000000000000602082015250565b7f4552433732313a207472616e7366657220746f206e6f6e20455243373231526560008201527f63656976657220696d706c656d656e7465720000000000000000000000000000602082015250565b7f4552433732313a207472616e736665722066726f6d20696e636f72726563742060008201527f6f776e6572000000000000000000000000000000000000000000000000000000602082015250565b7f4552433732313a20746f6b656e20616c7265616479206d696e74656400000000600082015250565b7f4552433732313a207472616e7366657220746f20746865207a65726f2061646460008201527f7265737300000000000000000000000000000000000000000000000000000000602082015250565b7f4552433732313a20617070726f766520746f2063616c6c657200000000000000600082015250565b7f4552433732313a206f70657261746f7220717565727920666f72206e6f6e657860008201527f697374656e7420746f6b656e0000000000000000000000000000000000000000602082015250565b7f446f67206e6f7420666f756e6400000000000000000000000000000000000000600082015250565b7f4552433732313a20617070726f76652063616c6c6572206973206e6f74206f7760008201527f6e6572206e6f7220617070726f76656420666f7220616c6c0000000000000000602082015250565b7f4552433732313a2062616c616e636520717565727920666f7220746865207a6560008201527f726f206164647265737300000000000000000000000000000000000000000000602082015250565b7f4552433732313a206f776e657220717565727920666f72206e6f6e657869737460008201527f656e7420746f6b656e0000000000000000000000000000000000000000000000602082015250565b7f4552433732313a206d696e7420746f20746865207a65726f2061646472657373600082015250565b7f4552433732313a20617070726f76656420717565727920666f72206e6f6e657860008201527f697374656e7420746f6b656e0000000000000000000000000000000000000000602082015250565b7f4552433732314d657461646174613a2055524920717565727920666f72206e6f60008201527f6e6578697374656e7420746f6b656e0000000000000000000000000000000000602082015250565b7f4552433732313a20617070726f76616c20746f2063757272656e74206f776e6560008201527f7200000000000000000000000000000000000000000000000000000000000000602082015250565b7f4552433732313a207472616e736665722063616c6c6572206973206e6f74206f60008201527f776e6572206e6f7220617070726f766564000000000000000000000000000000602082015250565b61356b81612e9d565b811461357657600080fd5b50565b61358281612eaf565b811461358d57600080fd5b50565b61359981612ebb565b81146135a457600080fd5b50565b6135b081612f07565b81146135bb57600080fd5b5056fea2646970667358221220eb7bb3853d2706c1dd4ffe651fbdf32b50329fac973d29b1bb97f3e35c6bbf0964736f6c63430008040033",
  "linkReferences": {},
  "deployedLinkReferences": {}
}