{
  "_format": "hh-sol-artifact-1",
  "contractName": "Dog",
  "sourceName": "contracts/Dog.sol",
  "abi": [
    {
      "inputs": [
        {
          "internalType": "string",
          "name": "_name",
          "type": "string"
        },
        {
          "internalType": "string",
          "name": "_symbol",
          "type": "string"
        }
      ],
      "stateMutability": "nonpayable",
      "type": "constructor"
    },
    {
      "anonymous": false,
      "inputs": [
        {
          "indexed": true,
          "internalType": "address",
          "name": "owner",
          "type": "address"
        },
        {
          "indexed": true,
          "internalType": "address",
          "name": "approved",
          "type": "address"
        },
        {
          "indexed": true,
          "internalType": "uint256",
          "name": "tokenId",
          "type": "uint256"
        }
      ],
      "name": "Approval",
      "type": "event"
    },
    {
      "anonymous": false,
      "inputs": [
        {
          "indexed": true,
          "internalType": "address",
          "name": "owner",
          "type": "address"
        },
        {
          "indexed": true,
          "internalType": "address",
          "name": "operator",
          "type": "address"
        },
        {
          "indexed": false,
          "internalType": "bool",
          "name": "approved",
          "type": "bool"
        }
      ],
      "name": "ApprovalForAll",
      "type": "event"
    },
    {
      "anonymous": false,
      "inputs": [
        {
          "indexed": true,
          "internalType": "address",
          "name": "from",
          "type": "address"
        },
        {
          "indexed": true,
          "internalType": "address",
          "name": "to",
          "type": "address"
        },
        {
          "indexed": true,
          "internalType": "uint256",
          "name": "tokenId",
          "type": "uint256"
        }
      ],
      "name": "Transfer",
      "type": "event"
    },
    {
      "inputs": [
        {
          "internalType": "address",
          "name": "to",
          "type": "address"
        },
        {
          "internalType": "uint256",
          "name": "tokenId",
          "type": "uint256"
        }
      ],
      "name": "approve",
      "outputs": [],
      "stateMutability": "nonpayable",
      "type": "function"
    },
    {
      "inputs": [
        {
          "internalType": "address",
          "name": "owner",
          "type": "address"
        }
      ],
      "name": "balanceOf",
      "outputs": [
        {
          "internalType": "uint256",
          "name": "",
          "type": "uint256"
        }
      ],
      "stateMutability": "view",
      "type": "function"
    },
    {
      "inputs": [
        {
          "internalType": "uint256",
          "name": "",
          "type": "uint256"
        }
      ],
      "name": "dogs",
      "outputs": [
        {
          "internalType": "uint256",
          "name": "id",
          "type": "uint256"
        },
        {
          "internalType": "string",
          "name": "uuid",
          "type": "string"
        },
        {
          "internalType": "string",
          "name": "name",
          "type": "string"
        },
        {
          "internalType": "string",
          "name": "breed",
          "type": "string"
        },
        {
          "internalType": "string",
          "name": "color",
          "type": "string"
        },
        {
          "internalType": "bool",
          "name": "availableForAdpt",
          "type": "bool"
        }
      ],
      "stateMutability": "view",
      "type": "function"
    },
    {
      "inputs": [
        {
          "internalType": "string",
          "name": "_uuid",
          "type": "string"
        }
      ],
      "name": "findDog",
      "outputs": [
        {
          "components": [
            {
              "internalType": "uint256",
              "name": "id",
              "type": "uint256"
            },
            {
              "internalType": "string",
              "name": "uuid",
              "type": "string"
            },
            {
              "internalType": "string",
              "name": "name",
              "type": "string"
            },
            {
              "internalType": "string",
              "name": "breed",
              "type": "string"
            },
            {
              "internalType": "string",
              "name": "color",
              "type": "string"
            },
            {
              "internalType": "bool",
              "name": "availableForAdpt",
              "type": "bool"
            }
          ],
          "internalType": "struct Dog.DogInfo",
          "name": "",
          "type": "tuple"
        }
      ],
      "stateMutability": "view",
      "type": "function"
    },
    {
      "inputs": [
        {
          "internalType": "uint256",
          "name": "tokenId",
          "type": "uint256"
        }
      ],
      "name": "getApproved",
      "outputs": [
        {
          "internalType": "address",
          "name": "",
          "type": "address"
        }
      ],
      "stateMutability": "view",
      "type": "function"
    },
    {
      "inputs": [
        {
          "internalType": "address",
          "name": "owner",
          "type": "address"
        },
        {
          "internalType": "address",
          "name": "operator",
          "type": "address"
        }
      ],
      "name": "isApprovedForAll",
      "outputs": [
        {
          "internalType": "bool",
          "name": "",
          "type": "bool"
        }
      ],
      "stateMutability": "view",
      "type": "function"
    },
    {
      "inputs": [],
      "name": "name",
      "outputs": [
        {
          "internalType": "string",
          "name": "",
          "type": "string"
        }
      ],
      "stateMutability": "view",
      "type": "function"
    },
    {
      "inputs": [],
      "name": "owner",
      "outputs": [
        {
          "internalType": "address",
          "name": "",
          "type": "address"
        }
      ],
      "stateMutability": "view",
      "type": "function"
    },
    {
      "inputs": [
        {
          "internalType": "uint256",
          "name": "tokenId",
          "type": "uint256"
        }
      ],
      "name": "ownerOf",
      "outputs": [
        {
          "internalType": "address",
          "name": "",
          "type": "address"
        }
      ],
      "stateMutability": "view",
      "type": "function"
    },
    {
      "inputs": [
        {
          "internalType": "string",
          "name": "_uuid",
          "type": "string"
        },
        {
          "internalType": "string",
          "name": "_name",
          "type": "string"
        },
        {
          "internalType": "string",
          "name": "_breed",
          "type": "string"
        },
        {
          "internalType": "string",
          "name": "_color",
          "type": "string"
        },
        {
          "internalType": "bool",
          "name": "availableForAdpt",
          "type": "bool"
        }
      ],
      "name": "registerDog",
      "outputs": [],
      "stateMutability": "nonpayable",
      "type": "function"
    },
    {
      "inputs": [
        {
          "internalType": "address",
          "name": "from",
          "type": "address"
        },
        {
          "internalType": "address",
          "name": "to",
          "type": "address"
        },
        {
          "internalType": "uint256",
          "name": "tokenId",
          "type": "uint256"
        }
      ],
      "name": "safeTransferFrom",
      "outputs": [],
      "stateMutability": "nonpayable",
      "type": "function"
    },
    {
      "inputs": [
        {
          "internalType": "address",
          "name": "from",
          "type": "address"
        },
        {
          "internalType": "address",
          "name": "to",
          "type": "address"
        },
        {
          "internalType": "uint256",
          "name": "tokenId",
          "type": "uint256"
        },
        {
          "internalType": "bytes",
          "name": "_data",
          "type": "bytes"
        }
      ],
      "name": "safeTransferFrom",
      "outputs": [],
      "stateMutability": "nonpayable",
      "type": "function"
    },
    {
      "inputs": [
        {
          "internalType": "address",
          "name": "operator",
          "type": "address"
        },
        {
          "internalType": "bool",
          "name": "approved",
          "type": "bool"
        }
      ],
      "name": "setApprovalForAll",
      "outputs": [],
      "stateMutability": "nonpayable",
      "type": "function"
    },
    {
      "inputs": [
        {
          "internalType": "bytes4",
          "name": "interfaceId",
          "type": "bytes4"
        }
      ],
      "name": "supportsInterface",
      "outputs": [
        {
          "internalType": "bool",
          "name": "",
          "type": "bool"
        }
      ],
      "stateMutability": "view",
      "type": "function"
    },
    {
      "inputs": [],
      "name": "symbol",
      "outputs": [
        {
          "internalType": "string",
          "name": "",
          "type": "string"
        }
      ],
      "stateMutability": "view",
      "type": "function"
    },
    {
      "inputs": [
        {
          "internalType": "uint256",
          "name": "tokenId",
          "type": "uint256"
        }
      ],
      "name": "tokenURI",
      "outputs": [
        {
          "internalType": "string",
          "name": "",
          "type": "string"
        }
      ],
      "stateMutability": "view",
      "type": "function"
    },
    {
      "inputs": [],
      "name": "totalSupply",
      "outputs": [
        {
          "internalType": "uint256",
          "name": "",
          "type": "uint256"
        }
      ],
      "stateMutability": "view",
      "type": "function"
    },
    {
      "inputs": [
        {
          "internalType": "address",
          "name": "from",
          "type": "address"
        },
        {
          "internalType": "address",
          "name": "to",
          "type": "address"
        },
        {
          "internalType": "uint256",
          "name": "tokenId",
          "type": "uint256"
        }
      ],
      "name": "transferFrom",
      "outputs": [],
      "stateMutability": "nonpayable",
      "type": "function"
    }
  ],
  "bytecode": "0x60806040523480156200001157600080fd5b5060405162003d6638038062003d6683398181016040528101906200003791906200023b565b818181600090816200004a91906200050b565b5080600190816200005c91906200050b565b50505033600660006101000a81548173ffffffffffffffffffffffffffffffffffffffff021916908373ffffffffffffffffffffffffffffffffffffffff1602179055505050620005f2565b6000604051905090565b600080fd5b600080fd5b600080fd5b600080fd5b6000601f19601f8301169050919050565b7f4e487b7100000000000000000000000000000000000000000000000000000000600052604160045260246000fd5b6200011182620000c6565b810181811067ffffffffffffffff82111715620001335762000132620000d7565b5b80604052505050565b600062000148620000a8565b905062000156828262000106565b919050565b600067ffffffffffffffff821115620001795762000178620000d7565b5b6200018482620000c6565b9050602081019050919050565b60005b83811015620001b157808201518184015260208101905062000194565b60008484015250505050565b6000620001d4620001ce846200015b565b6200013c565b905082815260208101848484011115620001f357620001f2620000c1565b5b6200020084828562000191565b509392505050565b600082601f83011262000220576200021f620000bc565b5b815162000232848260208601620001bd565b91505092915050565b60008060408385031215620002555762000254620000b2565b5b600083015167ffffffffffffffff811115620002765762000275620000b7565b5b620002848582860162000208565b925050602083015167ffffffffffffffff811115620002a857620002a7620000b7565b5b620002b68582860162000208565b9150509250929050565b600081519050919050565b7f4e487b7100000000000000000000000000000000000000000000000000000000600052602260045260246000fd5b600060028204905060018216806200031357607f821691505b602082108103620003295762000328620002cb565b5b50919050565b60008190508160005260206000209050919050565b60006020601f8301049050919050565b600082821b905092915050565b600060088302620003937fffffffffffffffffffffffffffffffffffffffffffffffffffffffffffffffff8262000354565b6200039f868362000354565b95508019841693508086168417925050509392505050565b6000819050919050565b6000819050919050565b6000620003ec620003e6620003e084620003b7565b620003c1565b620003b7565b9050919050565b6000819050919050565b6200040883620003cb565b620004206200041782620003f3565b84845462000361565b825550505050565b600090565b6200043762000428565b62000444818484620003fd565b505050565b5b818110156200046c57620004606000826200042d565b6001810190506200044a565b5050565b601f821115620004bb5762000485816200032f565b620004908462000344565b81016020851015620004a0578190505b620004b8620004af8562000344565b83018262000449565b50505b505050565b600082821c905092915050565b6000620004e060001984600802620004c0565b1980831691505092915050565b6000620004fb8383620004cd565b9150826002028217905092915050565b6200051682620002c0565b67ffffffffffffffff811115620005325762000531620000d7565b5b6200053e8254620002fa565b6200054b82828562000470565b600060209050601f8311600181146200058357600084156200056e578287015190505b6200057a8582620004ed565b865550620005ea565b601f19841662000593866200032f565b60005b82811015620005bd5784890151825560018201915060208501945060208101905062000596565b86831015620005dd5784890151620005d9601f891682620004cd565b8355505b6001600288020188555050505b505050505050565b61376480620006026000396000f3fe608060405234801561001057600080fd5b50600436106101165760003560e01c806370a08231116100a2578063a22cb46511610071578063a22cb4651461030c578063b88d4fde14610328578063c87b56dd14610344578063d696556514610374578063e985e9c51461039057610116565b806370a0823114610270578063749e7ff4146102a05780638da5cb5b146102d057806395d89b41146102ee57610116565b806318160ddd116100e957806318160ddd146101b557806323b872dd146101d357806338272356146101ef57806342842e0e146102245780636352211e1461024057610116565b806301ffc9a71461011b57806306fdde031461014b578063081812fc14610169578063095ea7b314610199575b600080fd5b61013560048036038101906101309190611f64565b6103c0565b6040516101429190611fac565b60405180910390f35b6101536104a2565b6040516101609190612057565b60405180910390f35b610183600480360381019061017e91906120af565b610534565b604051610190919061211d565b60405180910390f35b6101b360048036038101906101ae9190612164565b6105b9565b005b6101bd6106d0565b6040516101ca91906121b3565b60405180910390f35b6101ed60048036038101906101e891906121ce565b6106dd565b005b610209600480360381019061020491906120af565b61073d565b60405161021b96959493929190612221565b60405180910390f35b61023e600480360381019061023991906121ce565b6109b6565b005b61025a600480360381019061025591906120af565b6109d6565b604051610267919061211d565b60405180910390f35b61028a6004803603810190610285919061229e565b610a87565b60405161029791906121b3565b60405180910390f35b6102ba60048036038101906102b59190612400565b610b3e565b6040516102c7919061254f565b60405180910390f35b6102d8610e93565b6040516102e5919061211d565b60405180910390f35b6102f6610eb9565b6040516103039190612057565b60405180910390f35b6103266004803603810190610321919061259d565b610f4b565b005b610342600480360381019061033d919061267e565b610f61565b005b61035e600480360381019061035991906120af565b610fc3565b60405161036b9190612057565b60405180910390f35b61038e60048036038101906103899190612701565b61106a565b005b6103aa60048036038101906103a591906127ec565b6111fe565b6040516103b79190611fac565b60405180910390f35b60007f80ac58cd000000000000000000000000000000000000000000000000000000007bffffffffffffffffffffffffffffffffffffffffffffffffffffffff1916827bffffffffffffffffffffffffffffffffffffffffffffffffffffffff1916148061048b57507f5b5e139f000000000000000000000000000000000000000000000000000000007bffffffffffffffffffffffffffffffffffffffffffffffffffffffff1916827bffffffffffffffffffffffffffffffffffffffffffffffffffffffff1916145b8061049b575061049a82611292565b5b9050919050565b6060600080546104b19061285b565b80601f01602080910402602001604051908101604052809291908181526020018280546104dd9061285b565b801561052a5780601f106104ff5761010080835404028352916020019161052a565b820191906000526020600020905b81548152906001019060200180831161050d57829003601f168201915b5050505050905090565b600061053f826112fc565b61057e576040517f08c379a0000000000000000000000000000000000000000000000000000000008152600401610575906128fe565b60405180910390fd5b6004600083815260200190815260200160002060009054906101000a900473ffffffffffffffffffffffffffffffffffffffff169050919050565b60006105c4826109d6565b90508073ffffffffffffffffffffffffffffffffffffffff168373ffffffffffffffffffffffffffffffffffffffff1603610634576040517f08c379a000000000000000000000000000000000000000000000000000000000815260040161062b90612990565b60405180910390fd5b8073ffffffffffffffffffffffffffffffffffffffff16610653611368565b73ffffffffffffffffffffffffffffffffffffffff16148061068257506106818161067c611368565b6111fe565b5b6106c1576040517f08c379a00000000000000000000000000000000000000000000000000000000081526004016106b890612a22565b60405180910390fd5b6106cb8383611370565b505050565b6000600880549050905090565b6106ee6106e8611368565b82611429565b61072d576040517f08c379a000000000000000000000000000000000000000000000000000000000815260040161072490612ab4565b60405180910390fd5b610738838383611507565b505050565b6008818154811061074d57600080fd5b90600052602060002090600602016000915090508060000154908060010180546107769061285b565b80601f01602080910402602001604051908101604052809291908181526020018280546107a29061285b565b80156107ef5780601f106107c4576101008083540402835291602001916107ef565b820191906000526020600020905b8154815290600101906020018083116107d257829003601f168201915b5050505050908060020180546108049061285b565b80601f01602080910402602001604051908101604052809291908181526020018280546108309061285b565b801561087d5780601f106108525761010080835404028352916020019161087d565b820191906000526020600020905b81548152906001019060200180831161086057829003601f168201915b5050505050908060030180546108929061285b565b80601f01602080910402602001604051908101604052809291908181526020018280546108be9061285b565b801561090b5780601f106108e05761010080835404028352916020019161090b565b820191906000526020600020905b8154815290600101906020018083116108ee57829003601f168201915b5050505050908060040180546109209061285b565b80601f016020809104026020016040519081016040528092919081815260200182805461094c9061285b565b80156109995780601f1061096e57610100808354040283529160200191610999565b820191906000526020600020905b81548152906001019060200180831161097c57829003601f168201915b5050505050908060050160009054906101000a900460ff16905086565b6109d183838360405180602001604052806000815250610f61565b505050565b6000806002600084815260200190815260200160002060009054906101000a900473ffffffffffffffffffffffffffffffffffffffff169050600073ffffffffffffffffffffffffffffffffffffffff168173ffffffffffffffffffffffffffffffffffffffff1603610a7e576040517f08c379a0000000000000000000000000000000000000000000000000000000008152600401610a7590612b46565b60405180910390fd5b80915050919050565b60008073ffffffffffffffffffffffffffffffffffffffff168273ffffffffffffffffffffffffffffffffffffffff1603610af7576040517f08c379a0000000000000000000000000000000000000000000000000000000008152600401610aee90612bd8565b60405180910390fd5b600360008373ffffffffffffffffffffffffffffffffffffffff1673ffffffffffffffffffffffffffffffffffffffff168152602001908152602001600020549050919050565b610b46611ec0565b60005b600880549050811015610e5257828051906020012060088281548110610b7257610b71612bf8565b5b9060005260206000209060060201600101604051610b909190612cca565b604051809103902003610e3f5760088181548110610bb157610bb0612bf8565b5b90600052602060002090600602016040518060c001604052908160008201548152602001600182018054610be49061285b565b80601f0160208091040260200160405190810160405280929190818152602001828054610c109061285b565b8015610c5d5780601f10610c3257610100808354040283529160200191610c5d565b820191906000526020600020905b815481529060010190602001808311610c4057829003601f168201915b50505050508152602001600282018054610c769061285b565b80601f0160208091040260200160405190810160405280929190818152602001828054610ca29061285b565b8015610cef5780601f10610cc457610100808354040283529160200191610cef565b820191906000526020600020905b815481529060010190602001808311610cd257829003601f168201915b50505050508152602001600382018054610d089061285b565b80601f0160208091040260200160405190810160405280929190818152602001828054610d349061285b565b8015610d815780601f10610d5657610100808354040283529160200191610d81565b820191906000526020600020905b815481529060010190602001808311610d6457829003601f168201915b50505050508152602001600482018054610d9a9061285b565b80601f0160208091040260200160405190810160405280929190818152602001828054610dc69061285b565b8015610e135780601f10610de857610100808354040283529160200191610e13565b820191906000526020600020905b815481529060010190602001808311610df657829003601f168201915b505050505081526020016005820160009054906101000a900460ff161515151581525050915050610e8e565b8080610e4a90612d10565b915050610b49565b506040517f08c379a0000000000000000000000000000000000000000000000000000000008152600401610e8590612da4565b60405180910390fd5b919050565b600660009054906101000a900473ffffffffffffffffffffffffffffffffffffffff1681565b606060018054610ec89061285b565b80601f0160208091040260200160405190810160405280929190818152602001828054610ef49061285b565b8015610f415780601f10610f1657610100808354040283529160200191610f41565b820191906000526020600020905b815481529060010190602001808311610f2457829003601f168201915b5050505050905090565b610f5d610f56611368565b838361176d565b5050565b610f72610f6c611368565b83611429565b610fb1576040517f08c379a0000000000000000000000000000000000000000000000000000000008152600401610fa890612ab4565b60405180910390fd5b610fbd848484846118d9565b50505050565b6060610fce826112fc565b61100d576040517f08c379a000000000000000000000000000000000000000000000000000000000815260040161100490612e36565b60405180910390fd5b6000611017611935565b905060008151116110375760405180602001604052806000815250611062565b806110418461194c565b604051602001611052929190612e92565b6040516020818303038152906040525b915050919050565b600660009054906101000a900473ffffffffffffffffffffffffffffffffffffffff1673ffffffffffffffffffffffffffffffffffffffff163373ffffffffffffffffffffffffffffffffffffffff16146110fa576040517f08c379a00000000000000000000000000000000000000000000000000000000081526004016110f190612f28565b60405180910390fd5b60006111066007611aac565b905060006040518060c001604052808381526020018881526020018781526020018681526020018581526020018415158152509050600881908060018154018082558091505060019003906000526020600020906006020160009091909190915060008201518160000155602082015181600101908161118691906130f4565b50604082015181600201908161119c91906130f4565b5060608201518160030190816111b291906130f4565b5060808201518160040190816111c891906130f4565b5060a08201518160050160006101000a81548160ff02191690831515021790555050506111f53383611aba565b50505050505050565b6000600560008473ffffffffffffffffffffffffffffffffffffffff1673ffffffffffffffffffffffffffffffffffffffff16815260200190815260200160002060008373ffffffffffffffffffffffffffffffffffffffff1673ffffffffffffffffffffffffffffffffffffffff16815260200190815260200160002060009054906101000a900460ff16905092915050565b60007f01ffc9a7000000000000000000000000000000000000000000000000000000007bffffffffffffffffffffffffffffffffffffffffffffffffffffffff1916827bffffffffffffffffffffffffffffffffffffffffffffffffffffffff1916149050919050565b60008073ffffffffffffffffffffffffffffffffffffffff166002600084815260200190815260200160002060009054906101000a900473ffffffffffffffffffffffffffffffffffffffff1673ffffffffffffffffffffffffffffffffffffffff1614159050919050565b600033905090565b816004600083815260200190815260200160002060006101000a81548173ffffffffffffffffffffffffffffffffffffffff021916908373ffffffffffffffffffffffffffffffffffffffff160217905550808273ffffffffffffffffffffffffffffffffffffffff166113e3836109d6565b73ffffffffffffffffffffffffffffffffffffffff167f8c5be1e5ebec7d5bd14f71427d1e84f3dd0314c0f7b2291e5b200ac8c7c3b92560405160405180910390a45050565b6000611434826112fc565b611473576040517f08c379a000000000000000000000000000000000000000000000000000000000815260040161146a90613238565b60405180910390fd5b600061147e836109d6565b90508073ffffffffffffffffffffffffffffffffffffffff168473ffffffffffffffffffffffffffffffffffffffff1614806114ed57508373ffffffffffffffffffffffffffffffffffffffff166114d584610534565b73ffffffffffffffffffffffffffffffffffffffff16145b806114fe57506114fd81856111fe565b5b91505092915050565b8273ffffffffffffffffffffffffffffffffffffffff16611527826109d6565b73ffffffffffffffffffffffffffffffffffffffff161461157d576040517f08c379a0000000000000000000000000000000000000000000000000000000008152600401611574906132ca565b60405180910390fd5b600073ffffffffffffffffffffffffffffffffffffffff168273ffffffffffffffffffffffffffffffffffffffff16036115ec576040517f08c379a00000000000000000000000000000000000000000000000000000000081526004016115e39061335c565b60405180910390fd5b6115f7838383611ad8565b611602600082611370565b6001600360008573ffffffffffffffffffffffffffffffffffffffff1673ffffffffffffffffffffffffffffffffffffffff1681526020019081526020016000206000828254611652919061337c565b925050819055506001600360008473ffffffffffffffffffffffffffffffffffffffff1673ffffffffffffffffffffffffffffffffffffffff16815260200190815260200160002060008282546116a991906133b0565b92505081905550816002600083815260200190815260200160002060006101000a81548173ffffffffffffffffffffffffffffffffffffffff021916908373ffffffffffffffffffffffffffffffffffffffff160217905550808273ffffffffffffffffffffffffffffffffffffffff168473ffffffffffffffffffffffffffffffffffffffff167fddf252ad1be2c89b69c2b068fc378daa952ba7f163c4a11628f55a4df523b3ef60405160405180910390a4611768838383611add565b505050565b8173ffffffffffffffffffffffffffffffffffffffff168373ffffffffffffffffffffffffffffffffffffffff16036117db576040517f08c379a00000000000000000000000000000000000000000000000000000000081526004016117d290613430565b60405180910390fd5b80600560008573ffffffffffffffffffffffffffffffffffffffff1673ffffffffffffffffffffffffffffffffffffffff16815260200190815260200160002060008473ffffffffffffffffffffffffffffffffffffffff1673ffffffffffffffffffffffffffffffffffffffff16815260200190815260200160002060006101000a81548160ff0219169083151502179055508173ffffffffffffffffffffffffffffffffffffffff168373ffffffffffffffffffffffffffffffffffffffff167f17307eab39ab6107e8899845ad3d59bd9653f200f220920489ca2b5937696c31836040516118cc9190611fac565b60405180910390a3505050565b6118e4848484611507565b6118f084848484611ae2565b61192f576040517f08c379a0000000000000000000000000000000000000000000000000000000008152600401611926906134c2565b60405180910390fd5b50505050565b606060405180602001604052806000815250905090565b606060008203611993576040518060400160405280600181526020017f30000000000000000000000000000000000000000000000000000000000000008152509050611aa7565b600082905060005b600082146119c55780806119ae90612d10565b915050600a826119be9190613511565b915061199b565b60008167ffffffffffffffff8111156119e1576119e06122d5565b5b6040519080825280601f01601f191660200182016040528015611a135781602001600182028036833780820191505090505b5090505b60008514611aa057600182611a2c919061337c565b9150600a85611a3b9190613542565b6030611a4791906133b0565b60f81b818381518110611a5d57611a5c612bf8565b5b60200101907effffffffffffffffffffffffffffffffffffffffffffffffffffffffffffff1916908160001a905350600a85611a999190613511565b9450611a17565b8093505050505b919050565b600081600001549050919050565b611ad4828260405180602001604052806000815250611c69565b5050565b505050565b505050565b6000611b038473ffffffffffffffffffffffffffffffffffffffff16611cc4565b15611c5c578373ffffffffffffffffffffffffffffffffffffffff1663150b7a02611b2c611368565b8786866040518563ffffffff1660e01b8152600401611b4e94939291906135c8565b6020604051808303816000875af1925050508015611b8a57506040513d601f19601f82011682018060405250810190611b879190613629565b60015b611c0c573d8060008114611bba576040519150601f19603f3d011682016040523d82523d6000602084013e611bbf565b606091505b506000815103611c04576040517f08c379a0000000000000000000000000000000000000000000000000000000008152600401611bfb906134c2565b60405180910390fd5b805181602001fd5b63150b7a0260e01b7bffffffffffffffffffffffffffffffffffffffffffffffffffffffff1916817bffffffffffffffffffffffffffffffffffffffffffffffffffffffff191614915050611c61565b600190505b949350505050565b611c738383611ce7565b611c806000848484611ae2565b611cbf576040517f08c379a0000000000000000000000000000000000000000000000000000000008152600401611cb6906134c2565b60405180910390fd5b505050565b6000808273ffffffffffffffffffffffffffffffffffffffff163b119050919050565b600073ffffffffffffffffffffffffffffffffffffffff168273ffffffffffffffffffffffffffffffffffffffff1603611d56576040517f08c379a0000000000000000000000000000000000000000000000000000000008152600401611d4d906136a2565b60405180910390fd5b611d5f816112fc565b15611d9f576040517f08c379a0000000000000000000000000000000000000000000000000000000008152600401611d969061370e565b60405180910390fd5b611dab60008383611ad8565b6001600360008473ffffffffffffffffffffffffffffffffffffffff1673ffffffffffffffffffffffffffffffffffffffff1681526020019081526020016000206000828254611dfb91906133b0565b92505081905550816002600083815260200190815260200160002060006101000a81548173ffffffffffffffffffffffffffffffffffffffff021916908373ffffffffffffffffffffffffffffffffffffffff160217905550808273ffffffffffffffffffffffffffffffffffffffff16600073ffffffffffffffffffffffffffffffffffffffff167fddf252ad1be2c89b69c2b068fc378daa952ba7f163c4a11628f55a4df523b3ef60405160405180910390a4611ebc60008383611add565b5050565b6040518060c0016040528060008152602001606081526020016060815260200160608152602001606081526020016000151581525090565b6000604051905090565b600080fd5b600080fd5b60007fffffffff0000000000000000000000000000000000000000000000000000000082169050919050565b611f4181611f0c565b8114611f4c57600080fd5b50565b600081359050611f5e81611f38565b92915050565b600060208284031215611f7a57611f79611f02565b5b6000611f8884828501611f4f565b91505092915050565b60008115159050919050565b611fa681611f91565b82525050565b6000602082019050611fc16000830184611f9d565b92915050565b600081519050919050565b600082825260208201905092915050565b60005b83811015612001578082015181840152602081019050611fe6565b60008484015250505050565b6000601f19601f8301169050919050565b600061202982611fc7565b6120338185611fd2565b9350612043818560208601611fe3565b61204c8161200d565b840191505092915050565b60006020820190508181036000830152612071818461201e565b905092915050565b6000819050919050565b61208c81612079565b811461209757600080fd5b50565b6000813590506120a981612083565b92915050565b6000602082840312156120c5576120c4611f02565b5b60006120d38482850161209a565b91505092915050565b600073ffffffffffffffffffffffffffffffffffffffff82169050919050565b6000612107826120dc565b9050919050565b612117816120fc565b82525050565b6000602082019050612132600083018461210e565b92915050565b612141816120fc565b811461214c57600080fd5b50565b60008135905061215e81612138565b92915050565b6000806040838503121561217b5761217a611f02565b5b60006121898582860161214f565b925050602061219a8582860161209a565b9150509250929050565b6121ad81612079565b82525050565b60006020820190506121c860008301846121a4565b92915050565b6000806000606084860312156121e7576121e6611f02565b5b60006121f58682870161214f565b93505060206122068682870161214f565b92505060406122178682870161209a565b9150509250925092565b600060c08201905061223660008301896121a4565b8181036020830152612248818861201e565b9050818103604083015261225c818761201e565b90508181036060830152612270818661201e565b90508181036080830152612284818561201e565b905061229360a0830184611f9d565b979650505050505050565b6000602082840312156122b4576122b3611f02565b5b60006122c28482850161214f565b91505092915050565b600080fd5b600080fd5b7f4e487b7100000000000000000000000000000000000000000000000000000000600052604160045260246000fd5b61230d8261200d565b810181811067ffffffffffffffff8211171561232c5761232b6122d5565b5b80604052505050565b600061233f611ef8565b905061234b8282612304565b919050565b600067ffffffffffffffff82111561236b5761236a6122d5565b5b6123748261200d565b9050602081019050919050565b82818337600083830152505050565b60006123a361239e84612350565b612335565b9050828152602081018484840111156123bf576123be6122d0565b5b6123ca848285612381565b509392505050565b600082601f8301126123e7576123e66122cb565b5b81356123f7848260208601612390565b91505092915050565b60006020828403121561241657612415611f02565b5b600082013567ffffffffffffffff81111561243457612433611f07565b5b612440848285016123d2565b91505092915050565b61245281612079565b82525050565b600082825260208201905092915050565b600061247482611fc7565b61247e8185612458565b935061248e818560208601611fe3565b6124978161200d565b840191505092915050565b6124ab81611f91565b82525050565b600060c0830160008301516124c96000860182612449565b50602083015184820360208601526124e18282612469565b915050604083015184820360408601526124fb8282612469565b915050606083015184820360608601526125158282612469565b9150506080830151848203608086015261252f8282612469565b91505060a083015161254460a08601826124a2565b508091505092915050565b6000602082019050818103600083015261256981846124b1565b905092915050565b61257a81611f91565b811461258557600080fd5b50565b60008135905061259781612571565b92915050565b600080604083850312156125b4576125b3611f02565b5b60006125c28582860161214f565b92505060206125d385828601612588565b9150509250929050565b600067ffffffffffffffff8211156125f8576125f76122d5565b5b6126018261200d565b9050602081019050919050565b600061262161261c846125dd565b612335565b90508281526020810184848401111561263d5761263c6122d0565b5b612648848285612381565b509392505050565b600082601f830112612665576126646122cb565b5b813561267584826020860161260e565b91505092915050565b6000806000806080858703121561269857612697611f02565b5b60006126a68782880161214f565b94505060206126b78782880161214f565b93505060406126c88782880161209a565b925050606085013567ffffffffffffffff8111156126e9576126e8611f07565b5b6126f587828801612650565b91505092959194509250565b600080600080600060a0868803121561271d5761271c611f02565b5b600086013567ffffffffffffffff81111561273b5761273a611f07565b5b612747888289016123d2565b955050602086013567ffffffffffffffff81111561276857612767611f07565b5b612774888289016123d2565b945050604086013567ffffffffffffffff81111561279557612794611f07565b5b6127a1888289016123d2565b935050606086013567ffffffffffffffff8111156127c2576127c1611f07565b5b6127ce888289016123d2565b92505060806127df88828901612588565b9150509295509295909350565b6000806040838503121561280357612802611f02565b5b60006128118582860161214f565b92505060206128228582860161214f565b9150509250929050565b7f4e487b7100000000000000000000000000000000000000000000000000000000600052602260045260246000fd5b6000600282049050600182168061287357607f821691505b6020821081036128865761288561282c565b5b50919050565b7f4552433732313a20617070726f76656420717565727920666f72206e6f6e657860008201527f697374656e7420746f6b656e0000000000000000000000000000000000000000602082015250565b60006128e8602c83611fd2565b91506128f38261288c565b604082019050919050565b60006020820190508181036000830152612917816128db565b9050919050565b7f4552433732313a20617070726f76616c20746f2063757272656e74206f776e6560008201527f7200000000000000000000000000000000000000000000000000000000000000602082015250565b600061297a602183611fd2565b91506129858261291e565b604082019050919050565b600060208201905081810360008301526129a98161296d565b9050919050565b7f4552433732313a20617070726f76652063616c6c6572206973206e6f74206f7760008201527f6e6572206e6f7220617070726f76656420666f7220616c6c0000000000000000602082015250565b6000612a0c603883611fd2565b9150612a17826129b0565b604082019050919050565b60006020820190508181036000830152612a3b816129ff565b9050919050565b7f4552433732313a207472616e736665722063616c6c6572206973206e6f74206f60008201527f776e6572206e6f7220617070726f766564000000000000000000000000000000602082015250565b6000612a9e603183611fd2565b9150612aa982612a42565b604082019050919050565b60006020820190508181036000830152612acd81612a91565b9050919050565b7f4552433732313a206f776e657220717565727920666f72206e6f6e657869737460008201527f656e7420746f6b656e0000000000000000000000000000000000000000000000602082015250565b6000612b30602983611fd2565b9150612b3b82612ad4565b604082019050919050565b60006020820190508181036000830152612b5f81612b23565b9050919050565b7f4552433732313a2062616c616e636520717565727920666f7220746865207a6560008201527f726f206164647265737300000000000000000000000000000000000000000000602082015250565b6000612bc2602a83611fd2565b9150612bcd82612b66565b604082019050919050565b60006020820190508181036000830152612bf181612bb5565b9050919050565b7f4e487b7100000000000000000000000000000000000000000000000000000000600052603260045260246000fd5b600081905092915050565b60008190508160005260206000209050919050565b60008154612c548161285b565b612c5e8186612c27565b94506001821660008114612c795760018114612c8e57612cc1565b60ff1983168652811515820286019350612cc1565b612c9785612c32565b60005b83811015612cb957815481890152600182019150602081019050612c9a565b838801955050505b50505092915050565b6000612cd68284612c47565b915081905092915050565b7f4e487b7100000000000000000000000000000000000000000000000000000000600052601160045260246000fd5b6000612d1b82612079565b91507fffffffffffffffffffffffffffffffffffffffffffffffffffffffffffffffff8203612d4d57612d4c612ce1565b5b600182019050919050565b7f446f67206e6f7420666f756e6400000000000000000000000000000000000000600082015250565b6000612d8e600d83611fd2565b9150612d9982612d58565b602082019050919050565b60006020820190508181036000830152612dbd81612d81565b9050919050565b7f4552433732314d657461646174613a2055524920717565727920666f72206e6f60008201527f6e6578697374656e7420746f6b656e0000000000000000000000000000000000602082015250565b6000612e20602f83611fd2565b9150612e2b82612dc4565b604082019050919050565b60006020820190508181036000830152612e4f81612e13565b9050919050565b600081905092915050565b6000612e6c82611fc7565b612e768185612e56565b9350612e86818560208601611fe3565b80840191505092915050565b6000612e9e8285612e61565b9150612eaa8284612e61565b91508190509392505050565b7f4f6e6c7920746865206f776e65722063616e2063616c6c20746869732066756e60008201527f6374696f6e000000000000000000000000000000000000000000000000000000602082015250565b6000612f12602583611fd2565b9150612f1d82612eb6565b604082019050919050565b60006020820190508181036000830152612f4181612f05565b9050919050565b60008190508160005260206000209050919050565b60006020601f8301049050919050565b600082821b905092915050565b600060088302612faa7fffffffffffffffffffffffffffffffffffffffffffffffffffffffffffffffff82612f6d565b612fb48683612f6d565b95508019841693508086168417925050509392505050565b6000819050919050565b6000612ff1612fec612fe784612079565b612fcc565b612079565b9050919050565b6000819050919050565b61300b83612fd6565b61301f61301782612ff8565b848454612f7a565b825550505050565b600090565b613034613027565b61303f818484613002565b505050565b5b818110156130635761305860008261302c565b600181019050613045565b5050565b601f8211156130a85761307981612f48565b61308284612f5d565b81016020851015613091578190505b6130a561309d85612f5d565b830182613044565b50505b505050565b600082821c905092915050565b60006130cb600019846008026130ad565b1980831691505092915050565b60006130e483836130ba565b9150826002028217905092915050565b6130fd82611fc7565b67ffffffffffffffff811115613116576131156122d5565b5b613120825461285b565b61312b828285613067565b600060209050601f83116001811461315e576000841561314c578287015190505b61315685826130d8565b8655506131be565b601f19841661316c86612f48565b60005b828110156131945784890151825560018201915060208501945060208101905061316f565b868310156131b157848901516131ad601f8916826130ba565b8355505b6001600288020188555050505b505050505050565b7f4552433732313a206f70657261746f7220717565727920666f72206e6f6e657860008201527f697374656e7420746f6b656e0000000000000000000000000000000000000000602082015250565b6000613222602c83611fd2565b915061322d826131c6565b604082019050919050565b6000602082019050818103600083015261325181613215565b9050919050565b7f4552433732313a207472616e736665722066726f6d20696e636f72726563742060008201527f6f776e6572000000000000000000000000000000000000000000000000000000602082015250565b60006132b4602583611fd2565b91506132bf82613258565b604082019050919050565b600060208201905081810360008301526132e3816132a7565b9050919050565b7f4552433732313a207472616e7366657220746f20746865207a65726f2061646460008201527f7265737300000000000000000000000000000000000000000000000000000000602082015250565b6000613346602483611fd2565b9150613351826132ea565b604082019050919050565b6000602082019050818103600083015261337581613339565b9050919050565b600061338782612079565b915061339283612079565b92508282039050818111156133aa576133a9612ce1565b5b92915050565b60006133bb82612079565b91506133c683612079565b92508282019050808211156133de576133dd612ce1565b5b92915050565b7f4552433732313a20617070726f766520746f2063616c6c657200000000000000600082015250565b600061341a601983611fd2565b9150613425826133e4565b602082019050919050565b600060208201905081810360008301526134498161340d565b9050919050565b7f4552433732313a207472616e7366657220746f206e6f6e20455243373231526560008201527f63656976657220696d706c656d656e7465720000000000000000000000000000602082015250565b60006134ac603283611fd2565b91506134b782613450565b604082019050919050565b600060208201905081810360008301526134db8161349f565b9050919050565b7f4e487b7100000000000000000000000000000000000000000000000000000000600052601260045260246000fd5b600061351c82612079565b915061352783612079565b925082613537576135366134e2565b5b828204905092915050565b600061354d82612079565b915061355883612079565b925082613568576135676134e2565b5b828206905092915050565b600081519050919050565b600082825260208201905092915050565b600061359a82613573565b6135a4818561357e565b93506135b4818560208601611fe3565b6135bd8161200d565b840191505092915050565b60006080820190506135dd600083018761210e565b6135ea602083018661210e565b6135f760408301856121a4565b8181036060830152613609818461358f565b905095945050505050565b60008151905061362381611f38565b92915050565b60006020828403121561363f5761363e611f02565b5b600061364d84828501613614565b91505092915050565b7f4552433732313a206d696e7420746f20746865207a65726f2061646472657373600082015250565b600061368c602083611fd2565b915061369782613656565b602082019050919050565b600060208201905081810360008301526136bb8161367f565b9050919050565b7f4552433732313a20746f6b656e20616c7265616479206d696e74656400000000600082015250565b60006136f8601c83611fd2565b9150613703826136c2565b602082019050919050565b60006020820190508181036000830152613727816136eb565b905091905056fea264697066735822122014d8066ce1c399170c929251039b528913c5e57bbd06138a82d506c384ed860c64736f6c63430008130033",
  "linkReferences": {},
  "deployedLinkReferences": {}
}